:020000040800F2
:1000000000000520151500087D0400087F04000885
:100010008104000883040008850400080000000033
:10002000000000000000000000000000870400083D
:1000300089040008000000008B0400088D040008FB
:1000400065150008651500086515000865150008A8
:100050006515000865150008651500086515000898
:100060006515000865150008651500086515000888
:100070006515000865150008651500086515000878
:100080006515000865150008651500086515000868
:100090006515000865150008651500086515000858
:1000A0006515000865150008651500086515000848
:1000B0006515000895040008651500086515000819
:1000C0006515000865150008651500086515000828
:1000D0006515000865150008651500086515000818
:1000E0006515000865150008651500086515000808
:1000F00065150008651500086515000865150008F8
:1001000065150008651500086515000865150008E7
:1001100065150008651500086515000865150008D7
:1001200065150008651500086515000865150008C7
:1001300065150008651500086515000865150008B7
:1001400065150008651500086515000865150008A7
:100150006515000865150008651500086515000897
:100160006515000865150008651500086515000887
:1001700065150008651500086515000800000000F9
:100180006515000865150008651500086515000867
:100190006515000865150008651500086515000857
:1001A0006515000865150008651500086515000847
:0401B00065150008C9
:1001B40053B94AB9002908BF00281CBF4FF0FF31CA
:1001C4004FF0FF3000F00CB8ADF1080C6DE904CE2F
:1001D40001F0F4F9DDF804E0DDE9022304B070472E
:1001E400704700BF0348044B834202D0034B03B162
:1001F400184770470C0000200C000020000000008D
:100204000548064B1B1AD90F01EBA301491002D074
:10021400034B03B1184770470C0000200C0000206A
:100224000000000010B5064C237843B9FFF7DAFF4D
:10023400044B13B10448AFF300800123237010BDB5
:100244000C000020000000008818000808B5054BC9
:100254001BB105490548AFF30080BDE80840FFF72E
:10026400CFBF00BF00000000100000208818000865
:1002740030B58BB00024059406940794089409942F
:1002840001941D4B1A6B42F002021A631A6B02F0BE
:1002940002020192019A02941A6B42F001021A635B
:1002A4001A6B02F001020292029A03941A6B42F44E
:1002B40080621A631A6B02F480620392039A0494B4
:1002C4001A6B42F080021A631B6B03F080030493E1
:1002D400049B0A4D01221021284600F0EBFF102355
:1002E4000593012306930794089405A9284600F072
:1002F400DDFE0BB030BD00BF0038024000280240D4
:1003040072B6FEE708B50D480D4B03604FF48273D7
:10031400436000238360C360036143614FF4802220
:1003240082612022C2610362436283620A23C36240
:1003340001F08EF800B908BDFFF7E2FF28000020A5
:100344000030014000B587B0002302930393049367
:100354000593009301931448144A02604BF68032CB
:10036400426083604FF47A72C2600361836100F07B
:1003740077FA90B94FF48053029302A90A4800F027
:10038400A8FA60B90023009301936946064800F077
:100394001FFB30B907B05DF804FBFFF7B1FFFFF7AF
:1003A400AFFFFFF7ADFF00BF800000200004004056
:1003B40000B595B03422002107A801F0D2F800233B
:1003C400029303930493059306930093224A116CBA
:1003D40041F080511164126C02F080520092009A34
:1003E40001931E4A136823F4404343F4804313608B
:1003F400136803F440430193019B012307934FF4D3
:100404008033089302230D934FF480020E92082246
:100414000F92C0221092119304221292139307A8F0
:1004240000F03CFC98B90F230293022303930023AA
:1004340004934FF4A05305934FF480530693032180
:1004440002A800F07BFB20B915B05DF804FBFFF7B0
:1004540057FFFFF755FF00BF00380240007000400F
:1004640008B500F0BFFFFFF7A3FFFFF701FFFFF799
:1004740049FFFFF767FFFEE7FEE7FEE7FEE7FEE75B
:10048400FEE770477047704708B500F0C5FF08BD28
:1004940008B5024800F0C2F808BD00BF8000002083
:1004A40082B0002100910B4B5A6C42F480425A6492
:1004B4005A6C02F480420092009A01911A6C42F044
:1004C40080521A641B6C03F080530193019B02B0A9
:1004D400704700BF00380240F0B589B00023039391
:1004E400049305930693079302681F4B9A4201D025
:1004F40009B0F0BD0024009403F584335A6C42F42F
:1005040080525A645A6C02F480520092009A019408
:100514001A6B42F002021A631A6B02F00202019291
:10052400019A02941A6B42F001021A631B6B03F0E6
:1005340001030293029B18230393022704970326C3
:1005440006960525079503A9084800F0AFFD48F273
:1005540080030393049705940696079503A904481A
:1005640000F0A4FDC4E700BF0030014000040240D5
:100574000000024002680E4B9A4200D0704700B55A
:1005840083B00021019103F50D331A6C42F002028D
:100594001A641B6C03F002030193019B0A461D209D
:1005A40000F0A0FE1D2000F0D5FE03B05DF804FBB2
:1005B4000004004010B4036A046A24F001040462D5
:1005C400846924F0F00C4CEA021223F00A030B4372
:1005D400826103625DF8044B704710B4036A23F030
:1005E400100303628469036A24F4704C4CEA0232F7
:1005F40023F0A00343EA0113826103625DF8044B14
:100604007047836823F070030B4343F00703836050
:1006140070477047704770477047704710B504467D
:1006240003681A6912F0020F11D0DA6812F0020F8F
:100634000DD06FF002021A610123037703689B69EE
:1006440013F0030F70D0FFF7E6FF0023237723682E
:100654001A6912F0040F12D0DA6812F0040F0ED0E7
:100664006FF004021A610223237723689B6913F451
:10067400407F5FD02046FFF7CEFF00232377236817
:100684001A6912F0080F12D0DA6812F0080F0ED0AF
:100694006FF008021A61042323772368DB6913F0DF
:1006A400030F4ED02046FFF7B6FF002323772368BD
:1006B4001A6912F0100F12D0DA6812F0100F0ED06F
:1006C4006FF010021A61082323772368DB6913F49F
:1006D400407F3DD02046FFF79EFF00232377236809
:1006E4001A6912F0010F03D0DA6812F0010F36D143
:1006F40023681A6912F0800F03D0DA6812F0800FB1
:1007040034D123681A6912F0400F03D0DA6812F06A
:10071400400F32D123681A6912F0200F03D0DA682F
:1007240012F0200F30D110BDFFF774FF2046FFF701
:1007340073FF8AE72046FFF76DFF2046FFF76CFF43
:100744009BE72046FFF766FF2046FFF765FFACE70F
:100754002046FFF75FFF2046FFF75EFFBDE76FF01F
:1007640001021A612046FFF754FFC1E76FF08002CF
:100774001A61204600F073F9C3E76FF040021A6172
:100784002046FFF74AFFC5E76FF020021A612046B2
:1007940000F064F9C7E700000368304A904212D0C1
:1007A400B0F1804F0FD0A2F57C4290420BD002F5FD
:1007B4008062904207D002F58062904203D002F535
:1007C4007842904203D123F070034A681343234ACA
:1007D40090422AD0B0F1804F27D0A2F57C429042BB
:1007E40023D002F5806290421FD002F580629042CD
:1007F4001BD002F57842904217D002F57052904215
:1008040013D002F5806290420FD002F580629042CC
:100814000BD0A2F59832904207D002F58062904244
:1008240003D002F58062904203D123F44073CA6876
:10083400134323F080034A69134303608B68C36244
:100844000B688362054B984203D003F5806398429A
:1008540001D10B6903630123436170470000014028
:1008640040B310B5044690F83D30F3B1022384F848
:100874003D30214651F8040BFFF78EFF012384F825
:10088400463084F83E3084F83F3084F8403084F8B1
:10089400413084F8423084F8433084F8443084F89A
:1008A400453084F83D30002010BD80F83C30FFF71F
:1008B40061FEDBE70120704710B4846824F47F4CA8
:1008C40042EA03220A4342EA0C0282605DF8044BC6
:1008D400704790F83C30012B78D010B504460123C2
:1008E40080F83C30022380F83D300268936823F49A
:1008F4007F4323F0770393600B68602B4CD029D897
:10090400402B54D00CD9502B22D1CA6849680068B6
:10091400FFF750FE50212068FFF773FE002005E02A
:10092400202B0DD009D9302B0AD00120012384F8C3
:100934003D30002384F83C3010BD0BB1102B05D1A1
:1009440019462068FFF75DFE0020EFE70120EDE780
:100954000120EBE7B3F5805F34D0B3F5005F0CD131
:10096400CB684A6889680068FFF7A6FF2268936825
:1009740043F4804393600020D8E7702B24D1CB68E4
:100984004A6889680068FFF797FF2268936843F014
:10099400770393600020C9E7CA6849680068FFF7D5
:1009A4001CFE60212068FFF72CFE0020BEE7CA6809
:1009B40049680068FFF7FEFD40212068FFF721FE2B
:1009C4000020B3E70020B1E70120AFE70220704721
:1009D40090F83C20012A3DD010B40346012280F84F
:1009E4003C20022280F83D2002685068946820F080
:1009F400700C086840EA0C0050601A68164882427D
:100A04001AD0B2F1804F17D0A0F57C40824213D0A7
:100A140000F5806082420FD000F5806082420BD0E6
:100A240000F57840824207D000F57050824203D02E
:100A3400A0F59430824204D124F080044968214313
:100A44009160012283F83D20002083F83C005DF88A
:100A5400044B704702207047000001407047704704
:100A640008B5334B9B6803F00C03042B5BD0082BB5
:100A74005BD12F4B5A6802F03F025B6813F4800F7E
:100A84002CD02B4B5868C0F388104FEA401CBCEBA9
:100A9400000C6EEB0E0E4FEA8E1343EA9C634FEA92
:100AA4008C11B1EB0C0163EB0E03DB0043EA5173D1
:100AB400C90011EB000C43F10003590200234FEA73
:100AC4004C2041EADC51FFF773FB194B5B68C3F31D
:100AD400014301335B00B0FBF3F027E0144B58688B
:100AE400C0F388104FEA401CBCEB000C6EEB0E0EFA
:100AF4004FEA8E1343EA9C634FEA8C11B1EB0C016D
:100B040063EB0E03DB0043EA5173C90011EB000CE5
:100B140043F10003990200234FEA8C2041EA9C51DF
:100B2400FFF746FBD1E7034800E0034808BD00BFD8
:100B34000038024000127A000024F400002800F07B
:100B44009B8070B50D4604464F4B1B6803F00F03A2
:100B54008B4208D2CBB24C4A1370136803F00F03D4
:100B64008B4240F08B80236813F0020F17D013F0F0
:100B7400040F04D0454A936843F4E0539360236818
:100B840013F0080F04D0414A936843F46043936020
:100B94003E4A936823F0F003A1680B4393602368F3
:100BA40013F0010F32D06368012B21D09A1E012A61
:100BB40025D9364A126812F0020F61D033498A6887
:100BC40022F0030213438B6000F032FC06462F4BE5
:100BD4009B6803F00C036268B3EB820F16D000F03D
:100BE40027FC801B41F288339842F0D9032042E06D
:100BF400264A126812F4003FE0D101203BE0234A68
:100C0400126812F0007FD9D1012034E01E4B1B681A
:100C140003F00F03AB4207D9EAB21B4B1A701B68EF
:100C240003F00F03AB422DD1236813F0040F06D059
:100C3400164A936823F4E053E1680B4393602368F6
:100C440013F0080F07D0114A936823F46043216915
:100C540043EAC1039360FFF703FF0C4B9B68C3F3A4
:100C640003130B4AD35CD8400A4B18600A4B18682C
:100C740000F092FB002070BD012070470120FAE7CC
:100C84000120F8E70120F6E7003C0240003802406A
:100C9400A01800080800002004000020002800F02C
:100CA400E98170B582B00446036813F0010F3BD0AC
:100CB4009F4B9B6803F00C03042B2CD09C4B9B682C
:100CC40003F00C03082B21D06368B3F5803F4FD0A9
:100CD400B3F5A02F52D0964B1A6822F480321A60D2
:100CE4001A6822F480221A606368002B50D000F046
:100CF4009FFB05468E4B1B6813F4003F14D100F094
:100D040097FB401B6428F5D90320BAE1884B5B6844
:100D140013F4800FD8D0864B1B6813F4003F03D024
:100D24006368002B00F0A881236813F0020F54D0ED
:100D34007F4B9B6813F00C0F3ED07D4B9B6803F0F8
:100D44000C03082B33D0E368002B68D0794B0122C5
:100D54001A6000F06DFB0546754B1B6813F0020F1B
:100D640054D100F065FB401B0228F5D9032088E12B
:100D74006F4A136843F480331360B5E76C4B1A6809
:100D840042F480221A601A6842F480321A60ABE797
:100D940000F04EFB0546664B1B6813F4003FC3D0BE
:100DA40000F046FB401B6428F5D9032069E1604B41
:100DB4005B6813F4800FC6D15D4B1B6813F0020F00
:100DC40003D0E368012B40F05981594A136823F09A
:100DD400F803216943EAC1031360236813F0080F81
:100DE40042D063696BB3534B0122C3F8802E00F0E9
:100DF4001FFB05464E4B5B6F13F0020F34D100F01E
:100E040017FB401B0228F5D903203AE1484A13682E
:100E140023F0F803216943EAC1031360DDE7454B7E
:100E240000221A6000F004FB0546414B1B6813F0D6
:100E3400020FD2D000F0FCFA401B0228F5D903209F
:100E44001FE13C4B0022C3F8802E00F0F1FA054666
:100E5400374B5B6F13F0020F06D000F0E9FA401B2A
:100E64000228F5D903200CE1236813F0040F77D08E
:100E74002F4B1B6C13F0805F33D1002301932C4B59
:100E84001A6C42F080521A641B6C03F08053019375
:100E9400019B0125284B1B6813F4807F23D0A36892
:100EA400012B34D0052B38D0214B1A6F22F00102CC
:100EB4001A671A6F22F004021A67A368002B3DD048
:100EC40000F0B6FA06461A4B1B6F13F0020F46D118
:100ED40000F0AEFA801B41F288339842F3D9032024
:100EE400CFE00025D6E7144A136843F480731360F7
:100EF40000F09EFA0646104B1B6813F4807FCED197
:100F040000F096FA801B0228F5D90320B9E0084ABC
:100F1400136F43F001031367CFE7054B1A6F42F0D9
:100F240004021A671A6F42F001021A67C5E700BF8C
:100F340000380240000047420070004000F078FA98
:100F44000646584B1B6F13F0020F08D000F070FADE
:100F5400801B41F288339842F3D9032091E0EDB924
:100F6400A369002B00F08C804E4A926802F00C02B8
:100F7400082A54D0022B17D04B4B00221A6600F0DB
:100F840057FA0446474B1B6813F0007F45D000F026
:100F94004FFA001B0228F5D9032072E0414A136C72
:100FA40023F080531364DBE73F4B00221A6600F002
:100FB4003FFA05463B4B1B6813F0007F06D000F058
:100FC40037FA401B0228F5D903205AE0E369226A64
:100FD4001343626A43EA8213A26A5208013A43EA5B
:100FE4000243E26A43EA0263226B43EA02732D4A34
:100FF40053602D4B01221A6600F01AFA0446294B5D
:101004001B6813F0007F06D100F012FA001B0228BF
:10101400F5D9032035E0002033E0002031E0012B36
:1010240031D0204B5B6803F48001E26991422CD1FA
:1010340003F03F02216A8A4229D1616A47F6C072ED
:101044001A40B2EB811F24D103F44031A26A520842
:10105400013AB1EB024F1ED103F07062E16AB2EBC8
:10106400016F1AD103F0E043226BB3EB027F16D178
:10107400002006E001207047012002E0012000E08A
:10108400002002B070BD0120FBE70120F9E7012038
:10109400F7E70120F5E70120F3E70120F1E701205C
:1010A400EFE700BF003802400000474200230F2B47
:1010B40000F2F68070B582B066E085684FEA430EB0
:1010C400032404FA0EF425EA0405CC6804FA0EF4A9
:1010D4002C438460446824EA02044A68C2F3001280
:1010E4009A40224342605DE0DC08083450F8242032
:1010F40003F00705AD004FF00F0E0EFA05FE22EACD
:101104000E0E0A69AA4042EA0E0240F824205DE06D
:10111400092200E0002202FA0EF22A430234614D51
:1011240045F82420604A94686FEA0C0224EA0C050E
:101134004E6816F4801F01D04CEA04055A4CA56091
:10114400E46802EA04054E6816F4001F01D04CEA74
:101154000405554CE560646802EA04054E6816F41B
:10116400003F01D04CEA04054F4C656024682240DE
:101174004D6815F4803F01D04CEA04024A4C2260C9
:1011840001330F2B00F28A8001229A400C6804EA92
:10119400020C32EA0404F3D14C6804F00304013C69
:1011A400012C8AD94A6802F00302032A09D0C468D0
:1011B4005D000322AA4024EA02048A68AA4022436A
:1011C400C2604A6802F00302022A8DD004684FEA22
:1011D400430E032202FA0EF224EA02044A6802F0E1
:1011E400030202FA0EF2224302604A6812F4403FFC
:1011F400C6D0002201922D4A546C44F480445464B5
:10120400526C02F480420192019A9C08A51C254A62
:1012140052F8255003F0030E4FEA8E0E0F2202FA05
:101224000EF225EA0205224A90423FF473AF02F51A
:101234008062904222D002F58062904220D002F572
:10124400806290421ED002F5806290421CD002F56A
:10125400806290421AD002F58062904218D002F562
:101264008062904216D002F58062904214D002F55A
:10127400806290423FF44CAF0A224CE701224AE7D5
:10128400022248E7032246E7042244E7052242E714
:10129400062240E707223EE708223CE702B070BD81
:1012A400704700BF00380140003C01400038024054
:1012B400000002400AB181617047090481617047EE
:1012C400074AD36823F4E0631B041B0C000200F4F8
:1012D400E060034343F0BF6343F40033D3607047DB
:1012E40000ED00E000B5194BDB68C3F30223C3F142
:1012F400070CBCF1040F28BF4FF0040C03F1040EDB
:10130400BEF1060F18D9033B4FF0FF3E0EFA0CFC5A
:1013140021EA0C0199400EFA03FE22EA0E020A4366
:1013240000280BDB1201D2B200F1604000F56140ED
:1013340080F800235DF804FB0023E5E700F00F00CC
:101344001201D2B2024B1A54F4E700BF00ED00E0E0
:1013540014ED00E0002807DB00F01F024009012320
:101364009340024A42F82030704700BF00E100E099
:101374000138B0F1807F0BD24FF0E0235861054A69
:10138400F02182F823100020986107221A61704727
:101394000120704700ED00E010B504460E4B1A78AA
:1013A4004FF47A73B3FBF2F30C4A1068B0FBF3F01A
:1013B400FFF7DEFF68B90F2C01D901200AE00022F3
:1013C40021464FF0FF30FFF78DFF054B1C600020D6
:1013D40000E0012010BD00BF000000200800002034
:1013E4000400002008B50B4B1A6842F400721A601E
:1013F4001A6842F480621A601A6842F480721A60B1
:101404000320FFF75DFF0F20FFF7C6FFFFF748F843
:10141400002008BD003C0240034A1168034B1B78BE
:101424000B441360704700BFC80000200000002078
:10143400014B1868704700BFC8000020034AD2F867
:10144400883043F47003C2F88830704700ED00E040
:1014540000285AD010B50446436A33B94368B3F53B
:10146400827F05D00023C36102E00023036143614E
:101474000023A36294F85130002B40D0022384F857
:1014840051302268136823F040031360636803F447
:101494008273A26802F404421343E26802F4006215
:1014A4001343226902F002021343626902F001024B
:1014B4001343A26902F400721343E26902F0380292
:1014C4001343226A02F080021343A26A02F4005218
:1014D400216813430B60638B03F00403626A02F018
:1014E4001002216813434B602268D36923F400631C
:1014F400D36100206065012384F8513010BD84F865
:1015040050302046FEF7E8FFB8E70120704700009E
:10151400DFF834D00D480E490E4A002302E0D458B7
:10152400C4500433C4188C42F9D30B4A0B4C002327
:1015340001E013600432A242FBD3FFF77FFF00F007
:1015440019F8FEF78DFF7047000005200000002009
:101554000C000020C01800080C000020CC00002063
:10156400FEE702440346934200D1704703F8011B8F
:10157400F9E7000070B50D4D0D4C641BA410002656
:10158400A64209D10B4D0C4C00F07CF9641BA4104D
:101594000026A64205D170BD55F8043B9847013694
:1015A400EEE755F8043B98470136F2E7B81800080F
:1015B400B8180008B8180008BC1800082DE9F0474E
:1015C400089E0D4604460F46002B4AD18A42944693
:1015D40065D9B2FA82F343B102FA03FCC3F12002E3
:1015E4009F4020FA02F217439C404FEA1C4E1FFA18
:1015F4008CF5B7FBFEF1220C0EFB117742EA074291
:1016040001FB05F090420AD91CEB020201F1FF37FD
:1016140080F01C81904240F2198102396244121A0E
:10162400A4B2B2FBFEF00EFB102244EA024400FB1B
:1016340005F5A5420AD91CEB040400F1FF3280F041
:101644000781A54240F204816444023840EA014023
:10165400641B00211EB1DC400023C6E90043BDE841
:10166400F0878B4208D9002E00F0ED800021C6E9F6
:1016740000050846BDE8F087B3FA83F1002949D193
:10168400AB4202D3824200F2F880841A65EB030273
:1016940001201746002EE2D0C6E90047DFE702B971
:1016A400FFDEB2FA82F3002B40F090808A1A4FEAF0
:1016B4001C471FFA8CFE0121B2FBF7F507FB15202E
:1016C400220C42EA00420EFB05F0904208D91CEBC2
:1016D400020205F1FF3802D2904200F2CB80454667
:1016E400121AA4B2B2FBF7F007FB102244EA024438
:1016F4000EFB00FEA64508D91CEB040400F1FF32E2
:1017040002D2A64500F2BB801046A4EB0E0440EAC8
:1017140005409FE7C1F120078B4022FA07FC4CEA01
:10172400030C05FA01F420FA07F3FD404FEA1C49C3
:101734002343B5FBF9F81FFA8CFE09FB18551C0C62
:1017440044EA054408FB0EF5A54202FA01F200FA48
:1017540001F00BD91CEB040408F1FF3A80F08880F7
:10176400A54240F28580A8F102086444641B9DB23E
:10177400B4FBF9F309FB134445EA044403FB0EFEEE
:10178400A64508D91CEB040403F1FF356CD2A64529
:101794006AD9023B644443EA0843A3FB0295A4EBE1
:1017A4000E04AC42C846AE4656D353D056B1B0EB45
:1017B400080264EB0E0404FA07F7CA40CC4017434E
:1017C400C6E9007418460021BDE8F087C3F1200182
:1017D40002FA03FC20FA01F225FA01F19D402A43A2
:1017E4004FEA1C471FFA8CFEB1FBF7F007FB1015FC
:1017F400110C41EA054100FB0EF58D4204FA03F495
:1018040008D91CEB010100F1FF382FD28D422DD9EC
:1018140002386144491B92B2B1FBF7F507FB15117D
:1018240042EA014205FB0EF1914208D91CEB020287
:1018340005F1FF3816D2914214D9023D6244521A7E
:1018440045EA004138E73146304608E73946E6E6DE
:101854001046FBE64845A9D2B9EB020865EB0C0E2D
:10186400013BA3E74546EAE72B4694E74046D1E728
:10187400D0467BE7023D624432E708460AE7644407
:10188400023842E7F8B500BFF8BC08BC9E46704772
:0C189400F8B500BFF8BC08BC9E467047C9
:1018A0000000000000000000010203040607080910
:0818B00010FDFF7F01000000A4
:0418B80051020008D1
:0418BC0029020008F5
:0C18C00001000000100000000024F400F3
:0400000508001515C5
:00000001FF
