:020000040800F2
:1000000000000520590D0008690300086B03000873
:100010006D0300086F030008710300080000000072
:100020000000000000000000000000007303000852
:10003000750300080000000077030008790300083A
:10004000A90D0008A90D0008A90D0008A90D0008B8
:10005000A90D0008A90D0008A90D0008A90D0008A8
:10006000A90D0008A90D0008A90D0008A90D000898
:10007000A90D0008A90D0008A90D0008A90D000888
:10008000A90D0008A90D0008A90D0008A90D000878
:10009000A90D0008A90D0008A90D0008A90D000868
:1000A000A90D0008A90D0008A90D0008A90D000858
:1000B000A90D0008A90D0008A90D0008A90D000848
:1000C000A90D0008A90D0008A90D0008A90D000838
:1000D000A90D0008A90D0008A90D0008A90D000828
:1000E000A90D0008A90D0008A90D0008A90D000818
:1000F000A90D0008A90D0008A90D0008A90D000808
:10010000A90D0008A90D0008A90D0008A90D0008F7
:10011000A90D0008A90D0008A90D0008A90D0008E7
:10012000A90D0008A90D0008A90D0008A90D0008D7
:10013000A90D0008A90D0008A90D0008A90D0008C7
:10014000A90D0008A90D0008A90D0008A90D0008B7
:10015000A90D0008A90D0008A90D0008A90D0008A7
:10016000A90D0008A90D0008A90D0008A90D000897
:10017000A90D0008A90D0008A90D00080000000045
:10018000A90D0008A90D0008A90D0008A90D000877
:10019000A90D0008A90D0008A90D0008A90D000867
:1001A000A90D0008A90D0008A90D0008A90D000857
:0401B000A90D00088D
:1001B40053B94AB9002908BF00281CBF4FF0FF31CA
:1001C4004FF0FF3000F00CB8ADF1080C6DE904CE2F
:1001D40000F016FEDDF804E0DDE9022304B0704708
:1001E400704700BF0348044B834202D0034B03B162
:1001F400184770470C0000200C000020000000008D
:100204000548064B1B1AD90F01EBA301491002D074
:10021400034B03B1184770470C0000200C0000206A
:100224000000000010B5064C237843B9FFF7DAFF4D
:10023400044B13B10448AFF300800123237010BDB5
:100244000C00002000000000CC10000808B5054B8D
:100254001BB105490548AFF30080BDE80840FFF72E
:10026400CFBF00BF0000000010000020CC10000829
:1002740030B587B000240194029403940494059447
:1002840000940E4B1A6B42F480621A631B6B03F4E6
:1002940080630093009B0A4D01221021284600F040
:1002A40099FC10230193012302930394049401A95C
:1002B400284600F08BFB07B030BD00BF0038024079
:1002C4000028024072B6FEE700B595B03422002142
:1002D40007A800F068FD0023029303930493059399
:1002E40006930093194A116C41F080511164126C09
:1002F40002F080520092009A019315490A6822F490
:10030400404242F480420A600A6802F44042019288
:10031400019A0222079201220A9210220B920D9353
:1003240007A800F04BF968B90F2302930021039149
:1003340004910591069102A800F090F820B915B037
:100344005DF804FBFFF7BEFFFFF7BCFF0038024077
:100354000070004008B500F0C7FCFFF7B5FFFFF7D9
:1003640087FFFEE7FEE7FEE7FEE7FEE7FEE77047EE
:100374007047704708B500F0D1FC08BD82B0002179
:1003840000910B4B5A6C42F480425A645A6C02F44A
:1003940080420092009A01911A6C42F080521A64D1
:1003A4001B6C03F080530193019B02B0704700BFA4
:1003B4000038024008B5264B9B6803F00C03042B5D
:1003C40041D0082B41D1224B5A6802F03F025B68AE
:1003D40013F4800F12D01E4B5968C1F388111D48C5
:1003E4000023A1FB0001FFF7E3FE194B5B68C3F395
:1003F400014301335B00B0FBF3F027E0144B586872
:10040400C0F388104FEA401CBCEB000C6EEB0E0EE0
:100414004FEA8E1343EA9C634FEA8C11B1EB0C0153
:1004240063EB0E03DB0043EA5173C90011EB000CCC
:1004340043F10003990200234FEA8C2041EA9C51C6
:10044400FFF7B6FED1E7034800E0034808BD00BF4C
:100454000038024040787D010024F400002800F0B8
:100464009B8070B50D4604464F4B1B6803F00F0389
:100474008B4208D2CBB24C4A1370136803F00F03BB
:100484008B4240F08B80236813F0020F17D013F0D7
:10049400040F04D0454A936843F4E05393602368FF
:1004A40013F0080F04D0414A936843F46043936007
:1004B4003E4A936823F0F003A1680B4393602368DA
:1004C40013F0010F32D06368012B21D09A1E012A48
:1004D40025D9364A126812F0020F61D033498A686E
:1004E40022F0030213438B6000F024FC06462F4BDA
:1004F4009B6803F00C036268B3EB820F16D000F024
:1005040019FC801B41F288339842F0D9032042E061
:10051400264A126812F4003FE0D101203BE0234A4E
:10052400126812F0007FD9D1012034E01E4B1B6801
:1005340003F00F03AB4207D9EAB21B4B1A701B68D6
:1005440003F00F03AB422DD1236813F0040F06D040
:10055400164A936823F4E053E1680B4393602368DD
:1005640013F0080F07D0114A936823F460432169FC
:1005740043EAC1039360FFF71DFF0C4B9B68C3F371
:1005840003130B4AD35CD8400A4B18600A4B186813
:1005940000F084FB002070BD012070470120FAE7C1
:1005A4000120F8E70120F6E7003C02400038024051
:1005B400E41000080800002004000020002800F0D7
:1005C400E98170B582B00446036813F0010F3BD093
:1005D4009F4B9B6803F00C03042B2CD09C4B9B6813
:1005E40003F00C03082B21D06368B3F5803F4FD090
:1005F400B3F5A02F52D0964B1A6822F480321A60B9
:100604001A6822F480221A606368002B50D000F02C
:1006140091FB05468E4B1B6813F4003F14D100F088
:1006240089FB401B6428F5D90320BAE1884B5B6839
:1006340013F4800FD8D0864B1B6813F4003F03D00B
:100644006368002B00F0A881236813F0020F54D0D4
:100654007F4B9B6813F00C0F3ED07D4B9B6803F0DF
:100664000C03082B33D0E368002B68D0794B0122AC
:100674001A6000F05FFB0546754B1B6813F0020F10
:1006840054D100F057FB401B0228F5D9032088E120
:100694006F4A136843F480331360B5E76C4B1A68F0
:1006A40042F480221A601A6842F480321A60ABE77E
:1006B40000F040FB0546664B1B6813F4003FC3D0B3
:1006C40000F038FB401B6428F5D9032069E1604B36
:1006D4005B6813F4800FC6D15D4B1B6813F0020FE7
:1006E40003D0E368012B40F05981594A136823F081
:1006F400F803216943EAC1031360236813F0080F68
:1007040042D063696BB3534B0122C3F8802E00F0CF
:1007140011FB05464E4B5B6F13F0020F34D100F012
:1007240009FB401B0228F5D903203AE1484A136823
:1007340023F0F803216943EAC1031360DDE7454B65
:1007440000221A6000F0F6FA0546414B1B6813F0CC
:10075400020FD2D000F0EEFA401B0228F5D9032094
:100764001FE13C4B0022C3F8802E00F0E3FA05465B
:10077400374B5B6F13F0020F06D000F0DBFA401B1F
:100784000228F5D903200CE1236813F0040F77D075
:100794002F4B1B6C13F0805F33D1002301932C4B40
:1007A4001A6C42F080521A641B6C03F0805301935C
:1007B400019B0125284B1B6813F4807F23D0A36879
:1007C400012B34D0052B38D0214B1A6F22F00102B3
:1007D4001A671A6F22F004021A67A368002B3DD02F
:1007E40000F0A8FA06461A4B1B6F13F0020F46D10D
:1007F40000F0A0FA801B41F288339842F3D9032019
:10080400CFE00025D6E7144A136843F480731360DD
:1008140000F090FA0646104B1B6813F4807FCED18B
:1008240000F088FA801B0228F5D90320B9E0084AB1
:10083400136F43F001031367CFE7054B1A6F42F0C0
:1008440004021A671A6F42F001021A67C5E700BF73
:1008540000380240000047420070004000F06AFA8D
:100864000646584B1B6F13F0020F08D000F062FAD3
:10087400801B41F288339842F3D9032091E0EDB90B
:10088400A369002B00F08C804E4A926802F00C029F
:10089400082A54D0022B17D04B4B00221A6600F0C2
:1008A40049FA0446474B1B6813F0007F45D000F01B
:1008B40041FA001B0228F5D9032072E0414A136C67
:1008C40023F080531364DBE73F4B00221A6600F0E9
:1008D40031FA05463B4B1B6813F0007F06D000F04D
:1008E40029FA401B0228F5D903205AE0E369226A59
:1008F4001343626A43EA8213A26A5208013A43EA42
:100904000243E26A43EA0263226B43EA02732D4A1A
:1009140053602D4B01221A6600F00CFA0446294B51
:100924001B6813F0007F06D100F004FA001B0228B4
:10093400F5D9032035E0002033E0002031E0012B1D
:1009440031D0204B5B6803F48001E26991422CD1E1
:1009540003F03F02216A8A4229D1616A47F6C072D4
:100964001A40B2EB811F24D103F44031A26A520829
:10097400013AB1EB024F1ED103F07062E16AB2EBAF
:10098400016F1AD103F0E043226BB3EB027F16D15F
:10099400002006E001207047012002E0012000E071
:1009A400002002B070BD0120FBE70120F9E701201F
:1009B400F7E70120F5E70120F3E70120F1E7012043
:1009C400EFE700BF003802400000474200230F2B2E
:1009D40000F2F68070B582B066E085684FEA430E97
:1009E400032404FA0EF425EA0405CC6804FA0EF490
:1009F4002C438460446824EA02044A68C2F3001267
:100A04009A40224342605DE0DC08083450F8242018
:100A140003F00705AD004FF00F0E0EFA05FE22EAB3
:100A24000E0E0A69AA4042EA0E0240F824205DE054
:100A3400092200E0002202FA0EF22A430234614D38
:100A440045F82420604A94686FEA0C0224EA0C05F5
:100A54004E6816F4801F01D04CEA04055A4CA56078
:100A6400E46802EA04054E6816F4001F01D04CEA5B
:100A74000405554CE560646802EA04054E6816F402
:100A8400003F01D04CEA04054F4C656024682240C5
:100A94004D6815F4803F01D04CEA04024A4C2260B0
:100AA40001330F2B00F28A8001229A400C6804EA79
:100AB400020C32EA0404F3D14C6804F00304013C50
:100AC400012C8AD94A6802F00302032A09D0C468B7
:100AD4005D000322AA4024EA02048A68AA40224351
:100AE400C2604A6802F00302022A8DD004684FEA09
:100AF400430E032202FA0EF224EA02044A6802F0C8
:100B0400030202FA0EF2224302604A6812F4403FE2
:100B1400C6D0002201922D4A546C44F4804454649B
:100B2400526C02F480420192019A9C08A51C254A49
:100B340052F8255003F0030E4FEA8E0E0F2202FAEC
:100B44000EF225EA0205224A90423FF473AF02F501
:100B54008062904222D002F58062904220D002F559
:100B6400806290421ED002F5806290421CD002F551
:100B7400806290421AD002F58062904218D002F549
:100B84008062904216D002F58062904214D002F541
:100B9400806290423FF44CAF0A224CE701224AE7BC
:100BA400022248E7032246E7042244E7052242E7FB
:100BB400062240E707223EE708223CE702B070BD68
:100BC400704700BF00380140003C0140003802403B
:100BD400000002400AB181617047090481617047D5
:100BE400074AD36823F4E0631B041B0C000200F4DF
:100BF400E060034343F0BF6343F40033D3607047C2
:100C040000ED00E000B5194BDB68C3F30223C3F128
:100C1400070CBCF1040F28BF4FF0040C03F1040EC1
:100C2400BEF1060F18D9033B4FF0FF3E0EFA0CFC41
:100C340021EA0C0199400EFA03FE22EA0E020A434D
:100C440000280BDB1201D2B200F1604000F56140D4
:100C540080F800235DF804FB0023E5E700F00F00B3
:100C64001201D2B2024B1A54F4E700BF00ED00E0C7
:100C740014ED00E00138B0F1807F0BD24FF0E02397
:100C84005861054AF02182F8231000209861072258
:100C94001A6170470120704700ED00E010B504466A
:100CA4000E4B1A784FF47A73B3FBF2F30C4A1068C4
:100CB400B0FBF3F0FFF7DEFF68B90F2C01D9012078
:100CC4000AE0002221464FF0FF30FFF79BFF054B5F
:100CD4001C60002000E0012010BD00BF00000020C7
:100CE400080000200400002008B50B4B1A6842F4E9
:100CF40000721A601A6842F480621A601A6842F438
:100D040080721A600320FFF76BFF0F20FFF7C6FF06
:100D1400FFF734FB002008BD003C0240034A116881
:100D2400034B1B780B441360704700BF280000205E
:100D340000000020014B1868704700BF2800002005
:100D4400034AD2F8883043F47003C2F888307047FD
:100D540000ED00E0DFF834D00D480E490E4A0023C0
:100D640002E0D458C4500433C4188C42F9D30B4A5B
:100D74000B4C002301E013600432A242FBD3FFF7C3
:100D8400DFFF00F019F8FFF7E5FA704700000520CF
:100D9400000000200C000020041100080C000020BA
:100DA4002C000020FEE702440346934200D1704722
:100DB40003F8011BF9E7000070B50D4D0D4C641BE1
:100DC400A4100026A64209D10B4D0C4C00F07CF96E
:100DD400641BA4100026A64205D170BD55F8043B3F
:100DE40098470136EEE755F8043B98470136F2E799
:100DF400FC100008FC100008FC100008001100089A
:100E04002DE9F047089E0D4604460F46002B4AD1B3
:100E14008A42944665D9B2FA82F343B102FA03FCDA
:100E2400C3F120029F4020FA02F217439C404FEA8C
:100E34001C4E1FFA8CF5B7FBFEF1220C0EFB11774A
:100E440042EA074201FB05F090420AD91CEB020278
:100E540001F1FF3780F01C81904240F21981023980
:100E64006244121AA4B2B2FBFEF00EFB102244EA52
:100E7400024400FB05F5A5420AD91CEB040400F169
:100E8400FF3280F00781A54240F2048164440238B5
:100E940040EA0140641B00211EB1DC400023C6E986
:100EA4000043BDE8F0878B4208D9002E00F0ED80A6
:100EB4000021C6E900050846BDE8F087B3FA83F1CE
:100EC400002949D1AB4202D3824200F2F880841A4D
:100ED40065EB030201201746002EE2D0C6E9004765
:100EE400DFE702B9FFDEB2FA82F3002B40F0908014
:100EF4008A1A4FEA1C471FFA8CFE0121B2FBF7F550
:100F040007FB1520220C42EA00420EFB05F090423A
:100F140008D91CEB020205F1FF3802D2904200F21C
:100F2400CB804546121AA4B2B2FBF7F007FB10229D
:100F340044EA02440EFB00FEA64508D91CEB040457
:100F440000F1FF3202D2A64500F2BB801046A4EBAA
:100F54000E0440EA05409FE7C1F120078B4022FAC6
:100F640007FC4CEA030C05FA01F420FA07F3FD40F0
:100F74004FEA1C492343B5FBF9F81FFA8CFE09FB21
:100F840018551C0C44EA054408FB0EF5A54202FA68
:100F940001F200FA01F00BD91CEB040408F1FF3A4A
:100FA40080F08880A54240F28580A8F1020864445C
:100FB400641B9DB2B4FBF9F309FB134445EA0444F2
:100FC40003FB0EFEA64508D91CEB040403F1FF3510
:100FD4006CD2A6456AD9023B644443EA0843A3FBA6
:100FE4000295A4EB0E04AC42C846AE4656D353D089
:100FF40056B1B0EB080264EB0E0404FA07F7CA40DA
:10100400CC401743C6E9007418460021BDE8F087B8
:10101400C3F1200102FA03FC20FA01F225FA01F1DE
:101024009D402A434FEA1C471FFA8CFEB1FBF7F0A0
:1010340007FB1015110C41EA054100FB0EF58D422A
:1010440004FA03F408D91CEB010100F1FF382FD294
:101054008D422DD902386144491B92B2B1FBF7F598
:1010640007FB151142EA014205FB0EF1914208D932
:101074001CEB020205F1FF3816D2914214D9023D4D
:101084006244521A45EA004138E73146304608E7DF
:101094003946E6E61046FBE64845A9D2B9EB020814
:1010A40065EB0C0E013BA3E74546EAE72B4694E7C4
:1010B4004046D1E7D0467BE7023D624432E708462A
:1010C4000AE76444023842E7F8B500BFF8BC08BC3C
:1010D4009E467047F8B500BFF8BC08BC9E467047F2
:1010E40000000000000000000102030406070809D4
:0810F40010FDFF7F0100000068
:0410FC005102000895
:0411000029020008B8
:0C11040001000000100000000024F400B6
:0400000508000D5989
:00000001FF
